:1000000000800010D14D0000014E0000432500008B
:10001000472500004B2500004F2500000000000090
:100020000000000000000000000000000B4E000077
:1000300053250000000000000F4E0000114E00008C
:10004000134E0000134E0000134E0000134E00002C
:10005000134E0000572500005B2500005F250000BF
:1000600063250000134E0000134E0000134E0000E5
:10007000134E0000134E0000134E0000134E0000FC
:10008000134E0000134E0000134E0000134E0000EC
:10009000134E0000134E0000134E0000134E0000DC
:1000A000134E0000134E0000134E0000134E0000CC
:1000B000134E0000134E0000134E0000134E0000BC
:1000C000134E0000134E0000134E000010B5054CF7
:1000D000237833B9044B13B10448AFF300800123F4
:1000E000237010BD8801001000000000D4E0000063
:1000F00008B5064B1BB106480649AFF30080064819
:10010000036813B1054B03B1984708BD0000000018
:10011000D4E000008C0100108801001000000000F5
:1001200082B003468DF80730074B9DF9072052092E
:100130009DF8071001F01F01012000FA01F143F8BA
:10014000221002B0704700BF00E100E082B0034619
:100150008DF80730074B9DF9072052099DF80710CD
:1001600001F01F01012000FA01F1203243F82210B2
:1001700002B0704700E100E082B001900091009B66
:10018000002B05D0019BDB68019A52681A6004E0DD
:10019000019B1B69019A52681A6002B0704700BF48
:1001A00000B583B001900091019B00221A60019B71
:1001B00000225A60019B00229A60019B0022DA60B3
:1001C000019B00221A61019B00225A61019B184683
:1001D000009903F083FE019B184603B05DF804FB11
:1001E00000B583B001900091019B18460099FFF77C
:1001F000C3FF03B05DF804FB00B583B0019000912C
:1002000001980099FFF7ECFF019B184603B05DF8D9
:1002100004FB00BF00B583B001900091019B18461C
:10022000009903F0F7FB019B184603B05DF804FB4F
:1002300000B583B00190019B184603F0ADFC034666
:10024000184603B05DF804FB00B583B00190019837
:10025000FFF7EEFF0346184603B05DF804FB00BF4E
:1002600000B583B001900091019B1846009903F0FE
:10027000A9FC019B184603B05DF804FB00B583B0F0
:1002800001900091019B1846009903F0D5FC03B042
:100290005DF804FB00B583B00190009101980099CE
:1002A000FFF7ECFF019B184603B05DF804FB00BFAD
:1002B00000B583B00190019B064A1A600023002B11
:1002C00002D0019806F07BFA019B184603B05DF856
:1002D00004FB00BF78CB000000B583B0019001980B
:1002E000FFF7E6FF019806F06AFA019B184603B093
:1002F0005DF804FB00B585B003900291019201986E
:10030000074906F0B1FF0346184607F099F903467E
:10031000039802991A4600F005F805B05DF804FB51
:100320000024744900B585B0039002910192039BAB
:1003300014331846029903F0DFFE0398019904F084
:10034000E7F905B05DF804FB08B504480021FFF7A4
:1003500053FF03480021FFF74FFF08BD7C03001047
:10036000C403001000B583B0019006480121FFF7D7
:1003700043FF054B019A1A60044804F00BFA03B0DE
:100380005DF804FB7C030010E8030010DC030010A0
:1003900008B506484FF00001FFF77CFF0448002134
:1003A000FFF72AFF034804F0F5F908BD100200101A
:1003B000C4030010EC03001008B51E4804F018FA3E
:1003C00002461D4B1B684FF47A7101FB03F39A42FE
:1003D000B4BF00230123DBB2002B0FD0174B1B68E7
:1003E00017481946FFF756FF16480121FFF704FF8B
:1003F000104804F0DDF90F4804F022FA124804F026
:10040000F7F90246114B1B684FF47A7101FB03F3B5
:100410009A42B4BF00230123DBB2002B09D00C4861
:100420000021FFF7E9FE084804F0C2F9064804F08D
:1004300007FA08BDDC030010CC000010E803001030
:1004400010020010C4030010EC030010D0000010D4
:100450007C03001000B583B0019008480021FFF72D
:10046000CBFE07480021FFF7C7FE064803F0FAFD60
:100470000198FFF777FF03B05DF804FB140200104A
:100480002C0200100AD7A33C08B507480021FFF74B
:10049000B3FE064803F0E6FD05480021FFF7ACFE79
:1004A000FFF776FF08BD00BF140200100AD7233DF6
:1004B0002C02001008B507480021FFF79DFE0648F2
:1004C0000121FFF799FEFFF763FF044803F0CAFD1F
:1004D00008BD00BF2C020010140200100AD7A33C74
:1004E00008B507480021FFF787FE06484FF00001D6
:1004F000FFF7D0FE04480121FFF77EFE08BD00BFD4
:100500002C020010100200107C03001000B583B014
:10051000019008480021FFF76FFE07480121FFF70F
:100520006BFE064803F09EFD0198FFF71BFF03B02A
:100530005DF804FB140200102C0200100AD7233DC2
:1005400000B583B0002301930620FFF7FFFD4B4B5E
:100550001A684B4B1B689A4214BF002301238DF885
:1005600003304FE0454B1B68591C464B81FB03236E
:100570000B44DA11CB17D21A13461B029B1ACA1A64
:100580003F4B1B689A4214BF00230123DBB2002BB0
:100590001DD00620FFF7C4FD00BF384B1B68591C57
:1005A000384B81FB03230B44DA11CB17D21A1346C5
:1005B0001B029B1ACA1A324B1B689A4214BF0023B3
:1005C0000123DBB2002BE8D10620FFF7BFFD2B4B48
:1005D0001B682D49019A0A4411782C4AD154019B79
:1005E00001330193254B1B68591C264B81FB0323C8
:1005F0000B44DA11CB17D21A13461B029B1ACA1AE4
:100600001E4B1A60019B002BACD0019B013B1E4A84
:10061000D35C0A2BA6D11E4803F000FF0346002B33
:1006200005D09DF80330002B01D0012300E000230A
:10063000002B1BD0124B1B68144AD35C8DF8023080
:100640000F4B1B68591C0F4B81FB03230B44DA1122
:10065000CB17D21A13461B029B1ACA1A084B1A60F0
:100660009DF802300B48194603F0B6FF0620FFF74D
:1006700057FD00BF03B05DF804FB00BFF805001094
:10068000FC0500108180808008060010F80300102F
:10069000A4010010EC01001000B583B00023019309
:1006A0000620FFF753FD37E0264B1A68264B1B68E0
:1006B0009A4214BF00230123DBB2002B11D0062085
:1006C000FFF72EFD00BF1F4B1A681F4B1B689A4295
:1006D00014BF00230123DBB2002BF4D10620FFF767
:1006E00035FD194B1B68194AD25C1949019B0B4413
:1006F0001A70019B01330193134B1B68591C154B56
:1007000081FB03230B44DA11CB17D21A13461B02C9
:100710009B1ACA1A0C4B1A60019B002BC4D0019B78
:10072000013B0B4AD35C0D2BBED10620FFF7F8FC32
:10073000019B013B064A0021D15400BF03B05DF884
:1007400004FB00BF0006001004060010F8040010AF
:10075000580600108180808010B520480121FFF7E5
:100760004BFD18E01E4B1C681E4803F049FF034672
:10077000DAB21D4B1A551A4B1B68591C1B4B81FBD7
:1007800003230B44DA11CB17D21A13461B029B1A10
:10079000CA1A134B1A60164803F032FE0346002BA8
:1007A00013D00F4B1B68591C104B81FB03230B44C8
:1007B000DA11CB17D21A13461B029B1ACA1A0D4B19
:1007C0001B689A4201D0012300E00023002BC9D10D
:1007D00002480021FFF710FD00BF10BD9403001078
:1007E00000060010EC010010F804001081808080E9
:1007F000A40100100406001008B51A480121FFF7F3
:10080000FBFC17E0184B1B68184AD35C18481946C4
:1008100003F0E2FE144B1B68591C164B81FB0323AB
:100820000B44DA11CB17D21A13461B029B1ACA1AB1
:100830000D4B1A60104803F0F1FD0346002B07D062
:100840000E4B1A68084B1B689A4201D0012300E046
:100850000023002BD6D103480021FFF7CDFC00BFB9
:1008600008BD00BFAC030010FC050010F803001029
:10087000EC01001081808080A4010010F8050010B8
:1008800008B508484FF4165103F0AAFD054806497B
:10089000002203F0D1FD03480449012203F0CCFDFE
:1008A00008BD00BFA401001059070000F9070000AF
:1008B00082B00190019B1B78772B01D1002323E0AC
:1008C000019B1B78782B01D101231DE0019B1B7834
:1008D000642B01D1022317E0019B1B78612B01D10E
:1008E000032311E0019B1B78732B01D104230BE040
:1008F000019B1B78622B01D1052305E0019B1B782E
:10090000722B01D10623FFE7184602B0704700BFE3
:1009100086B00190019B0233059300230493059B4D
:100920001B788DF80F309DF80F30392B03D89DF8C8
:100930000F30303B0493059B013305930CE0049A80
:1009400013469B0013445B001A46059B591C0591F6
:100950001B78303B13440493059B1B782F2B03D942
:10096000059B1B78392BEAD9049B184606B07047C3
:1009700000B585B0034600918DF80730009806F069
:100980001FFC0346184606F083F802460B46104645
:1009900019461DA3D3E9002306F0CEF802460B4604
:1009A0001046194606F002FB034603939DF80730F4
:1009B000042B01D1FFF768FD9DF80730002B02D111
:1009C0000398FFF747FD9DF80730012B02D10398EC
:1009D000FFF79CFD9DF80730022B03D09DF80730F0
:1009E000032B02D10398FFF735FD9DF80730052B47
:1009F00001D1FFF75FFD9DF80730062B01D1FFF70E
:100A00006FFD05B05DF804FB7B14AE47E17A843FCF
:100A100000B583B01648FFF717FC01901448FFF7A4
:100A200013FC01901248FFF70FFC01901048FFF7EC
:100A30000BFC0346184606F02BF802460B46104600
:100A4000194609A3D3E9002306F076F802460B46BF
:100A50001046194606F082FA0346184603B05DF8C0
:100A600004FB00BFAFF300800000000000A0744052
:100A700008020010AFF3008000B583B01348FFF701
:100A8000E3FB01901148FFF7DFFB01900F48FFF7F0
:100A9000DBFB01900D48FFF7D7FB0346184605F036
:100AA000F7FF02460B46104619464FF00002084B6E
:100AB00006F042F802460B461046194606F04EFA7A
:100AC0000346184603B05DF804FB00BF0C0200109B
:100AD000009082400000000000B583B01648FFF788
:100AE000B3FB01901448FFF7AFFB01901248FFF7EA
:100AF000ABFB01901048FFF7A7FB0346184605F033
:100B0000C7FF02460B461046194609A3D3E9002346
:100B100006F012F802460B461046194606F01EFA79
:100B20000346184603B05DF804FB00BFAFF3008036
:100B30000000000000A0744004020010AFF3008029
:100B400008B5024803F07CFE08BD00BFA8060010EF
:100B500008B5054803F03EFE0246044B1A60024801
:100B600003F06EFE08BD00BFA8060010B40600101A
:100B700008B5024803F064FE08BD00BFB8060010C7
:100B800008B5054803F026FE0246044B1A600248E9
:100B900003F056FE08BD00BFB8060010C4060010E2
:100BA00008B5024803F04CFE08BD00BFC80600109F
:100BB00008B5054803F00EFE0246044B1A600248D1
:100BC00003F03EFE08BD00BFC8060010D4060010AA
:100BD00008B5114803F0DEFD1048114903F020FB71
:100BE0000E48104903F03CFB0F4803F0D3FD0F48BB
:100BF0000F4903F015FB0D480E4903F031FB0E4879
:100C000003F0C8FD0D480E4903F00AFB0B480D49DF
:100C100003F026FB08BD00BFA80600105C02001010
:100C2000410B0000510B0000B80600101C0300101F
:100C3000710B0000810B0000C8060010BC02001000
:100C4000A10B0000B10B000000B583B00190019B27
:100C5000184603F003FE019B064A1A60019B1433F9
:100C60001846002103F032FA019B184603B05DF8E4
:100C700004FB00BFD0DA000030B585B0FFF72CFFD1
:100C80000546FFF7C5FE0446FFF7F6FE094B196857
:100C9000094B1A68094B1B6800900191029203935B
:100CA000074808492A46234607F034FBFFF748FC6B
:100CB00005B030BDB4060010C4060010D406001004
:100CC0000806001058CB000008B503480349044A41
:100CD000FFF710FB08BD00BFD8060010790C00001C
:100CE0009A99993E08B5FFF767FB08BD08B5034818
:100CF0000349044AFFF7FEFA08BD00BF08070010C9
:100D0000E50C0000CDCCCC3D00B585B000230393AD
:100D100000230293FFF75CFFFFF7B2FDFFF7D4FF5C
:100D2000FFF712FBFFF7E2FFFFF7B6FC0848FFF7FB
:100D3000BFFD03468DF807300548FFF7E9FD009039
:100D40009DF8073018460099FFF712FEECE700BF48
:100D50005806001000B583B00190019B0D4A1A603F
:100D6000019B0D4A9A64019B0C4ADA64019B48334B
:100D7000184603F0F9FB019B1846FFF799FA002388
:100D8000002B02D0019805F01AFD019B184603B014
:100D90005DF804FB20DA000038DA00006CDA0000AD
:100DA000A0F14C00FFF7D6BFA0F14800FFF7D2BF7B
:100DB00000B583B001900198FFF7CCFF019805F0D2
:100DC000FEFC019B184603B05DF804FBA0F14C004B
:100DD000EEE700BFA0F14800EAE700BF00B583B02E
:100DE0000190019B084A1A60019B184603F060FDC0
:100DF0000023002B02D0019805F0E1FC019B18466E
:100E000003B05DF804FB00BFD0DA000000B583B08A
:100E100001900198FFF7E2FF019805F0D0FC019BDB
:100E2000184603B05DF804FB00B583B00190009153
:100E3000019B012B75D1009A4FF6FF739A4270D136
:100E400039483A493A4A002303F04AFA36483949C0
:100E5000394A05F0AFFC39483949FFF7DBF9394821
:100E60003949FFF7D7F939483949FFF7D3F93948F4
:100E70003949FFF7F5F939483949FFF791F9394808
:100E80003949FFF78DF939483949FFF789F9394868
:100E9000394903F059F937483849274A05F08AFC9F
:100EA0003748384903F050F935483449224A05F0AB
:100EB00081FC3548354903F047F933482F491E4A2C
:100EC00005F078FC32483349FFF76AF93248334974
:100ED000FFF766F932483349FFF762F93248334980
:100EE000FFF75EF9324803F041FC324803F03EFC64
:100EF000314803F03BFC314803F038FC304803F044
:100F000035FC3048FFF7A0FE2E482F490A4A05F06D
:100F100051FC2E48FFF798FE2C482B49064A05F055
:100F200049FC03B05DF804FBA401001002C00920D5
:100F300003C00920550D0000C80000100402001075
:100F400017C009200802001018C009200C02001068
:100F500019C00920100200101AC009201402001044
:100F600012C009202C02001011C0092044020010F8
:100F70000FC009205C02001045C00920D5410000C7
:100F8000BC02001043C009201C03001042C009200D
:100F90007C03001004C009209403001032C0092013
:100FA000AC03001034C00920C403001037C009206E
:100FB000DC030010EC030010A8060010B8060010B7
:100FC000C8060010D8060010DD0D0000080700104C
:100FD00008B501204FF6FF71FFF726FF08BD00BFDF
:100FE00000B583B00B4A0C4BD31A0193019B0A48FE
:100FF00000211A4606F043FF084800F087F800BEBB
:10100000AFF3008006F0A2FEFFF77EFE009000988E
:1010100002F0D6FE940C00108801001080CB000076
:1010200000B585B0039002910192039B022B06DC70
:1010300003980299019A00F0B1FB034605E003987A
:101040000299019A03F000FE0346184605B05DF8C8
:1010500004FB00BF00B585B0039002910192039B91
:10106000022B06DC03980299019A00F095FB0346D7
:1010700005E003980299019A03F0A2FD0346184681
:1010800005B05DF804FB00BF00B583B00190019B83
:10109000022B01DC012303E0019803F007FE034665
:1010A000184603B05DF804FB82B0EFF305830193AB
:1010B000019B002B00D000BE02B0704700B583B08A
:1010C0000190FFF7F1FF019806F0B2FE03461846C3
:1010D00003B05DF804FB00BF00B583B00190FFF7DB
:1010E000E3FF019806F0ACFE03B05DF804FB00BF1F
:1010F0004FF0FF331846704708B500BE012002F0DC
:101100005FFE00BF08B5FFF7F7FF00BF70B5002115
:101110009EB024220E4C06460E4806F0B0FE002576
:1011200001A8256000F0ECF901A83146256000F027
:10113000F7F9236813B901A801F02EFC236823B93D
:10114000044B5A6942F003025A611EB070BD00BFE1
:10115000480A00103807001010B500F0E5FD0446FD
:1011600000F0E6FD21460246BDE81040014801F0CE
:1011700091BC00BF4007001010B50446FFF7ECFF1C
:1011800021460248BDE8104001F038BD400700107C
:10119000024B586900F00400704700BF3807001088
:1011A00008B5054B586910F0020004D001F04CFA64
:1011B000003018BF012008BD38070010044B5A69E1
:1011C00010B142F0040201E022F004025A617047BB
:1011D00038070010024BD869031F58425841704726
:1011E0003807001008B500F0D5FE034B9869D9699F
:1011F000BDE8084000F096BE38070010024B586961
:1012000000F00200704700BF38070010014B83F860
:101210002000704738070010014B93F820007047FA
:1012200038070010014B9861D961704738070010EA
:10123000014B9869704700BF38070010004870479D
:101240004007001008B5FFF787FF014808BD00BF41
:101250004007001008B50A4801F046FC28B1FFF726
:101260007BFF0748074901F0C9FC054801F01AFC5B
:10127000BDE80840044800F1080100F007B900BFCC
:1012800040070010F4CB00003807001010B5FFF73E
:1012900063FF124800F1080100F094F8104801F0D3
:1012A0003DFC00230F4A02EBC3010979814206D1BC
:1012B00052F8333098478307044607D508E00133D6
:1012C0000C2BEFD10848FFF757FF0024FFF7C2FFB0
:1012D00004F00104002CDAD010BD00BF3807001064
:1012E0004007001094CB00000ACC0000F8B5FFF7CF
:1012F00057FF064600F010FD074601F089F930B1AE
:1013000001F064F918B9BDE8F84001F08DB9AFF308
:101310000080FFF745FF60B101F0A2F90028FBD182
:1013200001F05EF92B2804D001F00CFB01F0A6F9C6
:10133000F2E700F06FFF00F0FDFC134C052884F885
:10134000200025460FD100F076F960B100F07DF95C
:1013500048B147B900F072FDAFF30080636923F034
:1013600002036361F8BD1EB900F022FD02F05EF9D0
:10137000FFF78CFF00F062FDAFF300806B6923F094
:1013800002036B61F8BD00BF38070010A0F16103D4
:10139000052B01D857387047A0F14103052B01D820
:1013A000373870473038C3B2092B07D9044B4FF098
:1013B000FF301A68022AB8BF02221A60704700BFC5
:1013C000480A0010F8B5082204460D46002106F030
:1013D00056FD25602079242804D001F001F9C0B21F
:1013E0002071F8E7206801F05AFB0023637101F0D7
:1013F000F7F8C5B22571206801F05AFB58B1242DC9
:10140000E8D0232D09D0637920682B4463712946E5
:1014100001F072FBEBE7232DDCD11B4D00232B6089
:1014200001F0DEF8C7B2277101F0DAF8C6B2267112
:101430003846FFF7ABFF2B68074643B93046FFF746
:10144000A5FF2B681BB9FFB240EA0717A7712B68ED
:1014500013B16379DB43A37101F0B8F80028B9D167
:10146000A27963799A4214BF2D202B2001F0C4F891
:10147000A27963799A42ADD1206801F013FB20680C
:10148000BDE8F84001F00BBB480A001070B5082217
:1014900004460D46002106F0F2FC2560206801F0AC
:1014A000FEFA00236371242001F0A6F8206801F001
:1014B000FFFA48B1206801F031FB054601F09CF8C5
:1014C00063791D446571F1E7232001F095F8667991
:1014D0000A4D3309E85C06F00F0601F08DF8A85DAF
:1014E00001F08AF801F07CF82071C0B20328F9D02D
:1014F000C0B22B2801D02428D0D170BDF8CB000079
:1015000010B500212822044606F0B9FC0023E3624E
:1015100084F83030014BA36210BD00BF08CC00003E
:10152000F8B500252D4E04460F4628222946356081
:1015300006F0A5FC2346E56203F8305F39461846FD
:1015400004F1700732460D4611F8016B26B100F820
:10155000016BB8420D46F6D100210170297821B106
:1015600011680129B8BF012111601168002933D128
:10157000197800292FD0194613F8016B26B90023DA
:1015800013600B784BB913E0A56A013D15F8010F04
:101590000028F4D08642F9D1EDE7E36A092B03D99C
:1015A0000E4B0120186003E0581CE06244F8231041
:1015B00013688BB90B4611F8016B002ED8D0A56AC1
:1015C000013D15F8010F0028F4D08642F9D1002121
:1015D00019700133CCE7F8BDF8BD00BF480A001010
:1015E0002DE9F041C76A064688460024BC4208D06F
:1015F00056F824504146284606F01FFF10B101342A
:10160000F4E700252846BDE8F0812DE9F041C76ADE
:10161000064688460025BD4209D056F82540414679
:10162000204606F032FF844202D00135F3E7002461
:101630002046BDE8F08108B500F0D0FC0138C0B20A
:1016400001288CBF0020012008BD1FB500F0C6FC9A
:101650000446684600F054FC012C03D1684600F0B3
:10166000BAF806E0022C03D1684600F005F800E065
:10167000002004B010BD00001FB5044600F028FC97
:101680003C4B40F00100984209D123686846009322
:1016900063680193A368029301F022FD67E0364B73
:1016A000984209D123686846009363680193A36850
:1016B000029301F039FD5AE0304B98420DD1206879
:1016C000009006F0C4FE636801300293A3680190A5
:1016D0006846039301F0D8FC49E0294B984209D1B0
:1016E0002068009006F0B3FE01300190684601F0DA
:1016F00095FD3CE0234B984209D12368684600934E
:1017000063680193A368029301F046FD2FE01E4B2E
:10171000984203D1206801F02BFD28E01B4B984232
:1017200004D194E8030001F05BFD20E0184B9842DF
:1017300009D12068009006F08AFE013001906846C9
:1017400001F088FD13E0134B98420FD12068009000
:1017500006F07DFE013001906068029006F077FE91
:1017600001300390684601F099FD00E0002004B0CC
:1017700010BD00BF991700009D170000A1170000C1
:10178000A9170000B1170000B5170000B917000035
:10179000AD170000A5170000FFBE7047FFBE7047E1
:1017A000FFBE7047FFBE7047FFBE7047FFBE704769
:1017B000FFBE7047FFBE7047FFBE704710B50446BE
:1017C000FFF736FD031EA8BFC3EB04000021BDE8F0
:1017D000104000F0A7BB30B5036891B0092B00F0B2
:1017E00088800FD8022B51D002D8012B2ED088E050
:1017F000052B50D0062B40F084804568284601F028
:1018000093FC4CE00C2B50D00CD80A2B79D14368B8
:1018100068461A6800925B6801930023029301F006
:10182000BBFC6FE00E2B5DD040F20112934268D1F9
:1018300043685C681D6801F0F7F8242C34BF224629
:1018400024220146284606F011FB52E04068026857
:10185000009241684A0705D411F0080205D04FF400
:10186000027203E04FF4C06200E0134611F0020F71
:1018700018BF0223134302934FF4DB73039383686F
:1018800068460133019301F0FFFB3BE043681868B1
:1018900001F06EFC36E04568284601F021FC044664
:1018A000F0B1A868FFF78AFF1AE043686946186834
:1018B00001F096FC044698B1FFF7BAFC014678B9EE
:1018C0009DF821309DF822201B0443EA02239DF855
:1018D00023209DF82000134343EA006000F022FB20
:1018E00020460FE0406843680133436001F096FCF6
:1018F00008E000F04FFB0020014600F013FB012040
:1019000000E0002011B030BD124BF0B51F68064654
:101910003F0F002303F1606404F58174BB424FEA7A
:10192000041013D085680C4C2C40944210D10468EC
:10193000B4420DD1D0F804C00D460024012D02D9C7
:101940006D080134FAE7A44502D1F0BD0020F0BDD6
:101950000133DFE7001000E0AFFD0F00044B1B6810
:10196000C3F3031003F4E04340EA1320704700BFC1
:10197000002000E0044B1A68C2F3072290423ABFED
:10198000986001200020704790ED00E070B51E4D7A
:10199000AC6A14F0FF0635D01C4801F086FE1C48E6
:1019A00001F083FE304601F0A5FE260605D5194854
:1019B00001F07BFE686B01F09DFEA50602D516487E
:1019C00001F073FEE00607D5144801F06EFE144BDB
:1019D000D3F8400101F08EFE210707D5114801F030
:1019E00064FE0F4BD3F8400101F084FEA20702D53C
:1019F0000D4801F05AFEE30704D5BDE870400B48DE
:101A000001F053BE70BD00BF00ED00E008CF000044
:101A100017CF00002CCF000041CF00005BCF0000AB
:101A2000500A001078CF000097CF0000A8CF000028
:101A300070B5214DAC6A240A14F0FF063AD01F4855
:101A400001F033FE1E4801F030FE304601F052FE38
:101A5000230605D51B4801F028FEA86B01F04AFEBD
:101A6000A60602D5184801F020FEE50607D517485E
:101A700001F01BFE164BD3F8400101F03BFE20079E
:101A800007D5144801F011FE114BD3F8400101F0C5
:101A900031FE610702D5104801F007FEA20702D50A
:101AA0000E4801F002FEE30704D5BDE870400C4883
:101AB00001F0FBBD70BD00BF00ED00E0BFCF000036
:101AC00017CF00002CCF000041CF00005BCF0000FB
:101AD000500A001078CF0000CECF0000E9CF000000
:101AE00002D00000174B10B59C6A240C28D0164871
:101AF00001F0DBFD154801F0D8FD204601F0FAFDAC
:101B0000A20502D5124801F0D0FDE30502D5114827
:101B100001F0CBFD200702D50F4801F0C6FD61079B
:101B200002D50E4801F0C1FDA20702D50C4801F014
:101B3000BCFDE30704D5BDE810400A4801F0B5BD7F
:101B400010BD00BF00ED00E01CD0000017CF00006A
:101B50002DD0000041D0000057D000006FD0000011
:101B600093D00000A6D0000037B50546019200F0E2
:101B7000E9FF28463A2100F0BFFF002401AB195DC0
:101B80002846013400F0DEFF042CF7D128463B2123
:101B900000F0B2FF03B030BD0C4B034013B14FF067
:101BA000FF30704720F0604323F0030343F001034C
:101BB00039B910F0020F0CBF4FF080424FF00042D5
:101BC00001E04FF0404243EA02007047010000E0AC
:101BD00038B5FFF7E1FF0446FFF7C0FE094A0023CE
:101BE0008342154609D052F8041B21F0005121F020
:101BF00002018C4203D00133F2E7002038BD2846B1
:101C000038BD00BF082000E0044B1868C0F307206F
:101C1000D0F1010038BF0020704700BF90ED00E018
:101C200008B5FFF7F1FF40B9044B5A6822F00102F2
:101C30005A60BFF34F8FBFF36F8F08BD90ED00E088
:101C4000064BDA6822F48022DA60054BD3F838219B
:101C500022F00402C3F83821704700BFF0ED00E025
:101C6000500A001038B5264C00F0D0FB2548002162
:101C70004FF40C7206F003F9E36843F08073E360FD
:101C8000214B18680023000F03F1606202F5817296
:101C900083424FEA02120AD000211160516091681C
:101CA000013321F4D77121F001019160ECE7FFF7D6
:101CB00055FE164A16491368C3F30323184400233C
:101CC000834204D0002541F8045B0133F8E7136830
:101CD000104D43F0030313600823EB7785F822309F
:101CE00085F82330FFF7ACFFE36823F40033E360AB
:101CF000002385F82030E36843F48033E36038BD87
:101D0000F0ED00E0500A0010001000E0002000E0BC
:101D1000082000E000ED00E0024BD3F8380100F0AD
:101D200004007047500A001000487047F40B001080
:101D300089207047EFF30583DBB2023B162B2FD8C7
:101D4000DFE803F00C30300E102E2E2E2E2E122E29
:101D50002E2E2E2E2E2E2E0C0C0C0C000220704738
:101D60000A207047042070470F4B1B6BD80608D41D
:101D7000590709D49A070AD4DB0711D50323012296
:101D800007E00023102204E00123042201E00223E3
:101D90001A4605490A63054A02EBC30318797047DE
:101DA000112070470B20704700ED00E0C8CE000006
:101DB00010B5EFF30583DBB2033B032B2FD8DFE82D
:101DC00003F002212427164B1648DC6A01F06DFC53
:101DD000154801F06AFC204601F08CFC002C02DA68
:101DE000124801F062FCA20702D5114801F05DFC27
:101DF00063000FD50F4801F058FCFFF7C7FDFFF750
:101E000017FE05E0FFF7C2FD04E0FFF711FE01E059
:101E1000FFF768FEBDE81040074801F046BC10BD62
:101E200000ED00E0C1D0000017CF0000D1D00000CD
:101E3000E2D00000F9D0000005D1000070B51F4DC0
:101E4000FFF7EEFE28681E4CC0F307200138FFF7AD
:101E500091FDD4F89461FFF7D7FE08B97601EE60E2
:101E6000D4F89861FFF7D0FE00B92E61D4F8900144
:101E7000FFF780FDD4F88C61FFF7C6FE20B96E60D5
:101E8000BFF34F8FBFF36F8F0D4B1A4611680D488C
:101E9000043381420C4902D18B421A46F5D3D4F85F
:101EA000A0318A1A9A42C4BF054BC3F8A021074B40
:101EB000DA6822F40032DA6070BD00BF90ED00E015
:101EC000500A0010EFBEADDE880B0010F0ED00E010
:101ED000014BD3F880017047500A0010014BC3F842
:101EE00080017047500A0010044BD3F88001D3F8EA
:101EF0008831C01A18BF0120704700BF500A001077
:101F000030B5074AD2F84851D2F84C41D2F85011B6
:101F1000D2F84421846080E82400C16030BD00BF55
:101F2000500A0010034B0028C3F84401BCBF024B09
:101F300019607047500A0010900C0010BFF34F8FCB
:101F4000054BD3F83801D3F8382100F0020022F015
:101F50000202C3F838217047500A001010B500F093
:101F60001BFB0446FFF7EAFF38B1054B00201A6857
:101F70000A2AB8BF0A221A6010BD204610BD00BF51
:101F8000480A0010024BD3F88001FFF7E7BF00BFFB
:101F9000500A001038B50F4C00252560FFF7F2FFFE
:101FA00023680BB1256038BD00F4784200F4684026
:101FB000B0F5684F084B02D0B2F5704F03D1D3F89B
:101FC0008021043202E0D3F880210232C3F880215C
:101FD00038BD00BF480A0010500A001038B50E4D39
:101FE00000242C60FFF7CEFF2B6813B12C60204635
:101FF00038BD4BF6AB63984209D04BF6FF6398426D
:1020000007D0B0F53E4F14BF0020032038BD01209B
:1020100038BD022038BD00BF480A001038B50D4C4D
:102020000546D4F874210C21FFF79EFD2846D4F80C
:1020300078210D21FFF798FD2846D4F87C210E2148
:10204000FFF792FD2846D4F880210F21BDE83840E3
:10205000FFF78ABD500A001070B5064C064604F121
:10206000440514F8011F304600F06CFDAC42F8D175
:1020700070BD00BF930B001070B5064C064604F10E
:102080004405304600F07CFD04F8010FAC42F8D165
:1020900070BD00BF930B0010F8B5184C0025022945
:1020A0000646256008D001D3042904D904232360FF
:1020B0004FF0FF3500E001252368F3B9304629468B
:1020C000FFF786FD0746C0B9FFF748FC0C4A3B46C0
:1020D000834217460CD052F8041BC90701D50133BF
:1020E000F6E72FB130462946FFF756FD3860F8BDB8
:1020F0002368082BB8BF08232360F8BD480A0010E6
:10210000082000E0F8B5314D00232B60FFF73AFFBF
:102110002F682E462E4C27B900F47F40B0F55F4F54
:102120002BD0D4F83831002543F00403C4F83831FB
:102130003560FFF727FF3368074633B9244BD3F8E0
:1021400080010230FFF70AFF00E0284633681BB128
:102150001E4B00221A6021E027F00F07BFB24FF29A
:1021600080339F421AD100F5EF406F3080B20128D2
:1021700014D8082383F3118822E0164B02219B68B0
:10218000D86A20F00100FFF787FF2B688BB9D4F8DD
:10219000383143F01003C4F83831F8BDEFF312833F
:1021A000C4F89C31D4F8383143F00803C4F838310E
:1021B000DFE7D4F838312F6043F00403C4F8383136
:1021C000054BDA6842F48022DA60F8BD480A001054
:1021D000500A001000ED00E0F0ED00E00C4B002292
:1021E000022910B51A6003D004D3042907D901E0ED
:1021F000114605E004221A604FF0FF3100E0012192
:102200001C681CB9FFF7E4FC00B1046010BD00BFFE
:10221000480A001038B53B4D3B4CD5F8383123F017
:102220000203C5F83831D5F88031C5F88831FFF799
:10223000EBFC08B9636801E04FF0FF33C5F88C315F
:10224000A368C5F890312068C0F307200138FFF774
:1022500091FBFFF7D9FC18B92B4BDB685B0900E059
:102260000023C5F89431FFF7CFFC08B9236900E0DB
:102270000023C5F89831FFF7D3FC2068C0F307208E
:102280000138FFF777FBFFF7BFFC08B91E4BD8609A
:10229000FFF7BAFC08B91D4B2361FFF7B5FC38B94D
:1022A000636843F003036360BFF34F8FBFF36F8F27
:1022B000D5F83821134B11070CD5D3F8382122F06B
:1022C0000802C3F83821D3F89C3183F31188002326
:1022D000C5F89C31D5F838210A4BD2060DD5D3F874
:1022E0003821022122F01002C3F83821084B9B68E4
:1022F000D86A20F00100FFF771FFBDE83840FFF712
:102300009FBC00BF500A001090ED00E03F000001AC
:1023100000ED00E0022A98BF204B70B598BF9D5C8D
:1023200001F1FF3388BF00250B4206460C4606D15B
:102330004B420340984202D16B1F022B05D9184B28
:102340001A68042AB8BF042226E02A46FFF7DCFAFE
:1023500018BB144B1968090F00F1606303F5817312
:1023600088424FEA031312D09A6812F00F0201D08C
:102370000130F1E75BB1012C02D964080132FAE7C0
:102380005A605968914202D11E609D6070BD044B35
:102390001A68082AB8BF08221A6070BD07D1000069
:1023A000480A0010001000E0022A98BF114B10B537
:1023B00001F1FF3494BF9A5C00220C4006D14B42DD
:1023C0000340984202D1531F022B06D90A4B1A68C8
:1023D000042AB8BF04221A6010BDFFF795FA40B175
:1023E00004604460836823F4D77323F0010383609F
:1023F00010BD10BD07D10000480A001040F2B920FE
:1024000070470000004870470BCC000070475648EA
:1024100000F003B8554800F000B81EF0040F0CBFE0
:10242000EFF30881EFF30981514A11608746514863
:10243000514A0068104200F00380504900F000B893
:102440004F48026812F0010F1EBF42F00202026004
:1024500000F056B842F0010202602720DFF820C1E8
:10246000484A13466CE902230138FBD1EFF3088296
:1024700045480260424880F3088844482DE90050EE
:10248000B1E80C50A0E80C50A0E8F00F3CC940F8AF
:10249000082B38C015F4007F18BF043140F8101C19
:1024A000FEF724FF3A4850F80C1C026822F4007230
:1024B00041F8042D30E90C0021E90C0050F808CD5A
:1024C00041F804CD30E9F00F30E90C5021E90C500F
:1024D000BDE800502C48026882F308881EF0040F03
:1024E0000CBF81F3088881F309882548016821F031
:1024F00001010160BFF34F8FBFF36F8F00F01BB876
:102500001C48006810F4806F40F0158088690288CC
:1025100002F47842B2F5684F08D0B2F5704F05D09A
:10252000B2F5784F02D000F1020001E000F10400A2
:10253000886100F000B80F4801680160416841609F
:102540007047FFF767BFFFF765BFFFF763BFFFF790
:102550005EBFFFF75CBFFFF75ABFFFF758BFFFF73B
:1025600056BFFFF754BF0000412400002F24000095
:10257000900B001028ED00E018180000E8CE0000D5
:10258000880B0010EFBEADDE8C0B0010940B00101A
:10259000D40B001000687047008880B27047007844
:1025A00070470160704701807047017070470000FC
:1025B000034B04481A68044BD31A9B1058437047C6
:1025C000800C0010398EE3380CD10000034B1B68DF
:1025D000DB68187D00F00100704700BF800C001020
:1025E00008B5FFF7F3FF0028FBD0024B1B68DB6840
:1025F000187808BD800C0010044B1B68DB681A7D3E
:102600009206FCD5C0B21870704700BF800C001055
:1026100010B5EFF30584FFF7CBFFE3B215301B1ABB
:102620005842584110BD0000024B1B68DB689B6894
:10263000704700BF800C0010024B586800F001008A
:10264000704700BF800C0010044B586883075ABFC6
:1026500000F0010080F0010000207047800C0010A5
:1026600008B5FFF7F1FF28B1034B1B68DB68186A58
:1026700000F0010008BD00BF800C001008B5FFF796
:10268000E3FF20B1024B07221B68DB681A6208BD1A
:10269000800C00102DE9F04F87B00446002103A8FC
:1026A0000C2205F0ECFB20469549FEF799FF08B196
:1026B0000023049320469349FEF792FF08B10323B9
:1026C000049320469049FEF78BFF08B10123049341
:1026D00020468E49FEF784FF08B10223049320466A
:1026E0008B49FEF77DFF08B10023049320468949FA
:1026F000FEF776FF08B10123049320468649FEF7D2
:102700006FFF08B10223049320468449FEF768FF57
:1027100008B10323049320468149FEF776FFD8B120
:102720000E30002310F8012BAAB17E4A0025156057
:1027300010F8011C3039CEB2092E02D909211160DE
:10274000294612681AB1774A0021116003E00A2273
:1027500002FB0313E6E7059320467349FEF740FFAB
:1027600008B101230393049B242159436F48704A05
:10277000039F4318136027B1536843F0010353606C
:10278000BAE06C4A1C69D2F8C4502C43C2F8C44069
:10279000425859691068102520EA010111605969F1
:1027A000106801F0553101431160DA68012182F8A7
:1027B0002850DA6803201172DA681073059A002A2B
:1027C0005AD05D4800684FEA101CBCFBF2F402FBD3
:1027D00004F0604539D010014FEA0C2C01904FF005
:1027E000FF380D464FEA011E16460120884227D2C7
:1027F0004FEA0619B9FBFEF99144BCFBF9F909F15E
:1028000080094FEA19294FEA091A00FB0AFB4FEA2F
:102810000B1BBBFBFEFBDA44DDF804B0BCFBFAFA91
:10282000CBEB0A0ABAF1000FB8BFCAF1000AC245E1
:1028300003D2D04607460D464C4616440130D5E734
:1028400001311029CED147EA0515DA68EDB2117BC6
:1028500041F080011173E1B2C4F3072411701471C7
:1028600082F82850DA68117B01F07F011173304A39
:10287000516841F0020151605A6899691468186AF8
:1028800024EA0104084044EA000111609A68D96909
:102890001468186A24EA0104084044EA000111603F
:1028A000DA68117B107BC9B200F07F001073DA6820
:1028B00001205060DB681973FFF7E0FEFFF778FE38
:1028C0000530C0B243B2002B06DA1C4A00F00F01FB
:1028D0000A440021117606E003F1604202F56142EC
:1028E000002182F80013012200F01F0002FA00F01C
:1028F000134A5B0942F8230007B0BDE8F08F00BF20
:102900009CD10000AED10000C3D10000D9D100009D
:10291000EFD10000FAD1000005D2000010D2000073
:102920002AD20000480A00101BD200000CD100007F
:10293000800C001000C00F40D4000010FCEC00E040
:1029400000E100E038B5134B1C685D68DA6822F0DE
:102950007F4242B100221A60D96821F07F4159605C
:102960009A6005221A60FFF731FE0A4B30B9DA6827
:1029700022F07F4212B11A68D203F4D525F07F45C8
:102980005D601C60FFF722FE10B1FFF729FEDAE759
:1029900038BD00BF10E000E02DE9F0411D4D0023DF
:1029A0002A4642F8043B1C4B804603F12006186877
:1029B0005968144603C40833B3422246F7D1186855
:1029C000164E20603368164C0027D907276017D5AC
:1029D000144800F039F800F02BF8276041F28933F1
:1029E000013B02D03268D207FAD43368DB0744BF18
:1029F0000523236023681BB92B6843F001032B6078
:102A0000236823B94046BDE8F04100F0D1BFBDE8DE
:102A1000F08100BF5C07001039D20000F0ED00E04B
:102A2000480A001060070010004870476007001057
:102A300082B001A940F20510ABBE00280CBF01987E
:102A40004FF0FF3002B0704782B00090212001901B
:102A5000694640F20110ABBE02B07047A0F16103BD
:102A6000052B01D857387047A0F14103052B01D839
:102A7000373870473038C3B2092B07D9044B4FF0B1
:102A8000FF301A68022AB8BF02221A60704700BFDE
:102A9000480A00100A440160426081607047036880
:102AA0008360704783684268934238BF43607047D1
:102AB00083684068834294BFC3EB000000207047E6
:102AC00038B50D460446FFF7F3FFA84208D2636805
:102AD0000133A360034B1A68012AB8BF01221A60B0
:102AE00038BD00BF480A001082684068824294BF27
:102AF000002001207047000070B5074D00230E46EE
:102B000001212B600446FFF7DBFF2B681BB9A3688C
:102B10005A1CA2601E7070BD480A001070B5084EA5
:102B20000024012105463460FFF7CAFF336823B94A
:102B3000AB685A1CAA60187870BD204670BD00BFF3
:102B4000480A001070B50C4E00230D460221336078
:102B50000446FFF7B5FF33686BB9A36829095A1C0F
:102B6000A260064A05F00F05515C525D1970A3681A
:102B7000591CA1601A7070BD480A00105DD2000097
:102B800070B5104D002302212B600446FFF798FF1B
:102B90002B680BB1002070BDA3681878FFF75EFFAB
:102BA0002B680001C6B22BB9A3685878FFF756FF0F
:102BB0003043C6B22B68002BECD1A36830460233F9
:102BC000A36070BD480A0010F8B50B4F00230C46F7
:102BD00011463B6005461646FFF772FF3B684BB94E
:102BE0002644B44206D0AB685A1CAA6014F8012BE4
:102BF0001A70F6E7F8BD00BF480A001038B5054660
:102C000008460C4605F023FC214602462846BDE84E
:102C10003840FFF7D9BF00002DE9F04100260446F7
:102C20003746164D002320462B60FFF777FF2B68B1
:102C3000A84663B9FFF712FF2B6833B1A368226877
:102C4000934204D9013BA36001E000EB06162B6818
:102C50000BB90137E5E7094B00221A606368A268E7
:102C60009A4288BFA3602FB90323C8F800303846C2
:102C7000BDE8F0813046BDE8F08100BF480A001091
:102C80002DE9F04180460E4619B14FF07F430024F4
:102C900008E0BDE8F041FFF755BF0134042C4FEACE
:102CA000132301D03342F8D0C4F10304E500631CC0
:102CB0000DD026FA05F1074F00234046C9B23B600C
:102CC000FFF740FF3B68013C083D002BEFD0BDE81B
:102CD000F08100BF480A00100A4B70B500220C1E9C
:102CE00006461A601D4603DA2D216442FFF704FFF1
:102CF0002B682BB930462146BDE87040FFF7C0BFB6
:102D000070BD00BF480A001070B50B4D00232B604A
:102D100004460E46FFF7CCFE2B4608B901222A6076
:102D2000186838B9A3681A78B24204D10133A36095
:102D3000012070BD002070BD480A0010F8B5124C8B
:102D400000252D2107462560FFF7DEFF2368064694
:102D50001BB93846FFF760FF00E0284622680A4B9F
:102D600082B936B900280EDA03221A606FF00040EB
:102D7000F8BDB0F1004F83BF03224FF000401A604E
:102D80004042F8BD0020F8BD480A00102DE9F84384
:102D9000154D002314462B6006468946FFF788FE32
:102DA000A0423CBF01232B60D5F80080B8F1000F92
:102DB00010D1B76849463846224605F050FB054613
:102DC00050B93046FFF774FEA04207D03B5D3A2B66
:102DD00007D103E0002504E0454602E03C44B4602E
:102DE00001252846BDE8F883480A0010034B1B68FC
:102DF000042B0CBF02480348FEF7BEB9480A001076
:102E00006DD2000071D2000070B50646FEF716FACA
:102E10000F4C002323600546FFF780FE23683072C5
:102E2000ABB928462C2100F0BFF823687BB92846AF
:102E300000F0ACF8236830604BB928462C2100F034
:102E4000B3F823681BB9284600F0A0F8706070BD85
:102E5000480A001010B5094C0023024603C923603C
:102E6000FFF758FA23681BB1BDE81040FFF7BEBF5B
:102E70000348BDE81040FEF77FB900BF480A0010C4
:102E800075D2000010B5094C0023024603C9236027
:102E9000FFF78AFA23681BB1BDE81040FFF7A6BF11
:102EA0000348BDE81040FEF767B900BF480A0010AC
:102EB00075D200001FB5164C002301A82360FFF750
:102EC000A3FF23680BB113481DE09DF80C30313B84
:102ED000032B17D8DFE803F0020D0F1101980299B8
:102EE000FFF7DAF8236813B1FFF780FF0DE00A4817
:102EF00009E0002002E0012000E0022001A9FFF724
:102F0000A9FF02E00548FEF737F9002004B010BD24
:102F1000480A00106DD2000075D200000ACC0000F3
:102F20001FB5164C002301A82360FFF76DFF23682F
:102F30000BB113481DE09DF80C30313B032B17D823
:102F4000DFE803F0020D0F1101980299FFF746F92F
:102F5000236813B1FFF74AFF0DE00A4809E000209B
:102F600002E0012000E0022001A9FFF78BFF02E050
:102F70000548FEF701F9002004B010BD480A001012
:102F80006DD2000075D200000ACC000010B5054CCF
:102F900000232360FFF740FE2368002B18BF0020AA
:102FA00010BD00BF480A001008B5FFF7ADFE28B9F4
:102FB000034B1A68042AB8BF04221A6008BD00BF78
:102FC000480A001070B50A4C00230D4623600646DF
:102FD000FFF7DCFF236828604BB930462C21FFF750
:102FE000E3FF23681BB93046FFF7D0FF686070BD70
:102FF000480A001038B5074C002323600546FFF748
:10300000E1FF23682BB928463A21BDE83840FFF795
:10301000CBBF38BD480A001070B5FEF70FF9064661
:10302000FEF762FF18B9FEF7D9FF032812D000257A
:103030000A4C002330462360FFF7A8FF23680BB932
:10304000FEF74CFF236813B1044B00221A6045F0D1
:10305000030070BDFEF79EFF0425E9E7480A001053
:1030600008B5FEF713F9FEF793F848B1FEF7B2F88A
:1030700008B9FEF7B7F80220FEF7C8F8002008BD2F
:10308000FEF7B0F8012008BD38B50546FEF7DAF8BE
:1030900012490446FFF7B2FD20462968FFF7F0FD0C
:1030A00020462F21FFF728FD20466968FFF7E8FD3D
:1030B00020462C21FFF720FD2046A968FFF7E0FD00
:1030C00020462C21FFF718FD2046E968FFF7D8FDC0
:1030D000FEF7C0F8BDE83840FFF7C2BF83D200005A
:1030E00038B50546FEF7AEF80E490446FFF786FDF3
:1030F00020462968FFF7C4FD20462C21FFF7FCFC81
:1031000020466968FFF7BCFD20462C21FFF7F4FC40
:103110002046A968FFF7B4FDFEF79CF8BDE83840EB
:10312000FFF79EBF7BD2000038B50546FEF78AF850
:103130000E490446FFF762FD20462968FFF7A0FD0F
:1031400020462C21FFF7D8FC20466968FFF798FD40
:1031500020462C21FFF7D0FC2046A968FFF790FD00
:10316000FEF778F8BDE83840FFF77ABF8AD2000052
:1031700038B50446FEF766F806490546FFF73EFDFA
:1031800028462146FFF77CFDFEF764F8BDE838408D
:10319000FFF766BFAAD2000038B50546FEF752F821
:1031A0000E490446FFF72AFD20462968FFF768FD0F
:1031B00020462C21FFF7A0FC20466968FFF78CFD14
:1031C00020462C21FFF798FC2046A968FFF784FDD4
:1031D000FEF740F8BDE83840FFF742BF91D200004B
:1031E00070B50D460646FEF72DF80B490446FFF76D
:1031F00005FD20463146FFF743FD20462C21FFF711
:103200007BFC20462946FFF73BFDFEF723F8BDE88F
:103210007040FFF725BF00BF99D2000038B50546C2
:10322000FEF710F80A490446FFF7E8FC2046296833
:10323000FFF726FD20462F21FFF75EFC2046696838
:10324000FFF71EFDFEF706F8BDE83840FFF708BFA0
:10325000A1D2000038B50546FDF7F4FF0E4904463B
:10326000FFF7CCFC20462968FFF70AFD20462F21F6
:10327000FFF742FC20466968FFF702FD20462C213B
:10328000FFF73AFC2046A968FFF7FAFCFDF7E2FFDA
:10329000BDE83840FFF7E4BEB2D2000038B50546BD
:1032A000FDF7D0FF12490446FFF7A8FC2046296825
:1032B000FFF7E6FC20462F21FFF71EFC2046696839
:1032C000FFF7DEFC20462C21FFF716FC2046A968FC
:1032D000FFF7D6FC20462F21FFF70EFC2046E968B9
:1032E000FFF7CEFCFDF7B6FFBDE83840FFF7B8BEEC
:1032F000B9D2000070B5FDF7A1FF0446FFF71EFD2F
:103300002C2106462046FFF7FFFC50B12046FFF770
:1033100015FD0B49054602222046FFF737FD0446FE
:1033200001E00446054630462946FDF77BFF20466E
:10333000FDF744FF034B00221A60032070BD00BF5D
:1033400078D20000480A001037B5FDF777FF0B4C24
:103350000023694623600546FFF734FE23681BB14E
:103360000748FDF709FF06E0FDF7F6FE9DE80600B9
:10337000284600F06FFA002003B030BD480A001064
:103380006DD2000037B5FDF759FF0F4D0023694698
:103390002B600446FFF72EFE2B680BB10B480EE0A6
:1033A00020469DE8060000F08FFA08B1084806E0C4
:1033B0002046FFF799FB08B1064800E00648FDF7F4
:1033C000DBFE002003B030BD480A00106DD20000C3
:1033D00075D20000F4CB0000C2D2000037B5FDF773
:1033E0002DFF0F4D002369462B600446FFF702FEB8
:1033F0002B680BB10B480EE020469DE8060000F05C
:10340000AFFA08B1084806E02046FFF76DFB08B1A7
:10341000064800E00648FDF7AFFE002003B030BDCF
:10342000480A00106DD2000075D20000F4CB0000F5
:10343000C2D200002DE9F8430546FDF7FFFE2C1D22
:1034400094E89002A742064603D2E41B4FF06D08B1
:1034500003E00024A1464FF06C08FDF77DFE3046E6
:10346000FFF726FB484528BF4846A0428CBF4FF0D7
:103470006C08044641463046FFF73EFB296830465B
:1034800039442246BDE8F843FFF79EBBF7B5054631
:10349000102208460E46002104F0F1FC28463A218D
:1034A000FFF732FC1E4C28B92368042BB8BF042355
:1034B000236032E028461B490422FFF767FC0028FE
:1034C000F2D028463A21FFF71FFC0028ECD0002359
:1034D000154928460A222360FFF758FC07463A217F
:1034E000284627B1FFF710FC88B10F4803E0FFF72B
:1034F0000BFC60B138462368306073B928466946D2
:10350000FFF760FD009BB360019BF36005E023685B
:10351000042BB8BF04232360EDE703B0F0BD00BF68
:10352000480A0010DAD2000031D300007FB5FDF761
:1035300085FE354909220446FFF728FC064668B196
:10354000FEF7F6FB0446FDF77DFE30490546FFF722
:1035500055FB28462146FFF793FB52E020462C49B5
:103560000422FFF713FC002848D0FDF767FE3A213C
:103570000446FFF7C9FB002834D0204625490A221B
:10358000FFF704FC0546A0B1234CFDF757FE694642
:103590002660FFF77BFF23681BB9009B0BB1042358
:1035A00023602368F3B900F023FA009000F01CFABE
:1035B0001FE0204619490822FFF7E8FBF0B1164C3E
:1035C000FDF73CFE69462560FFF760FF23683BB9C5
:1035D000009818B1124904F030FF08B104232360A9
:1035E00023680BB10F480AE0FEF70CFF0090FEF7CE
:1035F00005FF01906846FFF71DFF02E00A48FDF74E
:10360000BBFD002004B070BDEFD20000F9D2000075
:10361000DFD20000CFD20000480A0010C6D200005E
:10362000E4D200006DD200000ACC000010B5FDF716
:1036300009FE54210446FFF75FFAFDF7EDFD014650
:103640002046FFF77FFA2046FEF7E8FCFDF702FE72
:10365000022010BD08B5FDF7F5FDFEF7FDFC0020CA
:1036600008BD000010B5FDF7E9FD0446FEF704FDB6
:103670002046FFF739FA08B1034800E00348FDF798
:103680007BFD002010BD00BFF4CB000075D2000010
:1036900008B5FFF7C1FC430703D5BDE80840FFF7B5
:1036A000C5BFFEF72FFD032008BD38B50546FEF760
:1036B000C3FF013D48B1FDF7A1FD30B115F8010F81
:1036C00010B1FEF799FFF9E738BDFDF7BBFD4F21BB
:1036D0000446FFF711FA15F8011F204611B1FFF754
:1036E00031FAF8E7FFF700FA18B9BDE83840FDF7FE
:1036F000B1BD38BD10B586B00B220446694603A89B
:10370000FFF7C8F903A80849FFF778FA03A821468C
:10371000FFF7B6FA03A80021FFF7EEF96846FFF7B6
:10372000C4FF06B010BD00BF3CD30000F8B505468D
:103730008C18A1420DD008464E1CFEF730FF0746FC
:10374000FEF7FCFB38B939462846FFF7FBF931464E
:10375000EFE70120F8BD0020F8BD0000F8B50746EE
:103760000C468E18B44214D00B4D002338462B6003
:10377000FFF706FA2B6801460BB10020F8BD204682
:10378000651CFEF712FFFEF7D9FB0028F5D12C4689
:10379000E8E70120F8BD00BF480A00102DE9F0411C
:1037A00006460C4601EB0208444523D0134D002386
:1037B00030462B60FFF7B2F92F6801465FB97D28CC
:1037C00009D13046FFF7AAF92B681BB980F0200118
:1037D000C9B200E039462B6813B10020BDE8F08182
:1037E0002046651CFEF7E1FEFEF7A8FB0028F4D199
:1037F0002C46D9E70120BDE8F08100BF480A00103F
:103800002DE9F04106460C4601EB0208444518D06C
:103810000F4D002330462B60FFF780F92F685FB90A
:103820007D2809D13046FFF779F92A681AB980F066
:103830002003D8B200E038462A682AB904F8010B00
:10384000E4E70120BDE8F0810020BDE8F08100BF81
:10385000480A0010022A37B5054602D0042A16D0BD
:103860002AE011F0010427D10846FEF795FEADF8D5
:103870000400FEF763FB20BB28469DF80410FFF709
:1038800061F928469DF80510FFF75CF912E011F088
:10389000030411D10846FEF77DFE0190FEF74EFBB2
:1038A00078B9044601AB195D28460134FFF74AF99F
:1038B000042CF7D1012404E003B0BDE83040FFF749
:1038C00035BF204603B030BD022A2DE9F34107463B
:1038D0000D4602D0042A19D01BE011F0010418D1C2
:1038E0001E4E3460FFF74CF933688DF8040083BB3B
:1038F00038463460FFF744F933688DF8050043BB60
:103900002846BDF80410FEF74EFE1CE011F003043B
:1039100004D002B0BDE8F041FFF720BF2646DFF833
:103920003C8000233846C8F80030FFF729F901AB86
:103930009855D8F8003001365BB9042EEFD12846EF
:103940000199FEF72EFEFEF7F9FAD0F1010438BF17
:103950000024204602B0BDE8F08100BF480A0010F4
:10396000022A13B50C4602D0042A0CD01CE0CB0767
:103970001AD401A9FFF744FFC0B12046BDF80410D6
:10398000FEF711FE09E08B070ED101A9FFF738FF02
:1039900060B120460199FEF704FEFEF7CFFAD0F1A0
:1039A000010038BF002001E0FFF7F8FE02B010BDB3
:1039B00038B50C4C002323600546FEF753F9236805
:1039C00073B903F16042013302F561420821232BF0
:1039D00082F80013F5D12846BDE83840FEF75ABEFC
:1039E00038BD00BF480A001040F2C65070470000C2
:1039F000004870473FD3000082B001900091009BC7
:103A00005A1E019B1A44009B92FBF3F3184602B026
:103A1000704700BF00B587B0019000910098204921
:103A200000F0E2FA0346DAB2019B1A70019B1B78A0
:103A3000FF2B02D11B4800F0B1F91B4B1A4AD2F8F8
:103A4000C42042F48052C3F8C420174B164AD2F85F
:103A5000A82122F04072C3F8A821134B124AD2F8D1
:103A6000A82142F08072C3F8A821104B1B6805936F
:103A70000F4B0493059A049B10461946FFF7BCFFB1
:103A80000346013B03930B4B039A120242F40012CC
:103A90001A600098024900F041FA07B05DF804FB93
:103AA00008D9000074D9000000C00F40D4000010F5
:103AB000405DC6000040034084B00190144B144A9E
:103AC000126822F0FF021A60114B114A1168019A24
:103AD0001278012000FA02F20A431A600C4B0C4AD9
:103AE000126842F080721A60094B5B680393039B73
:103AF000002BF9DA064B064A126822F080721A602F
:103B0000039B1B09C3F30B03184604B0704700BFA7
:103B10000040034084B001900091019B1A68009B13
:103B20001B689A4209D9019B1B680393009B1A6882
:103B3000019B1A60009B039A1A6004B0704700BF93
:103B400000B587B001900198FFF7B6FF03460493D4
:103B50000198FFF7B1FF034603930198FFF7ACFF0D
:103B60000346029304AA03AB10461946FFF7D2FF9F
:103B700003AA02AB10461946FFF7CCFF04AA03AB19
:103B800010461946FFF7C6FF039B0593059B184691
:103B900007B05DF804FB00BF00B585B00190019847
:103BA000FFF7CEFF0390039803F006FB0346184689
:103BB000034903F059FB0346184605B05DF804FBC2
:103BC0000108803900B583B0019000910098104938
:103BD00000F00AFA0346DAB2019B1A70019B1B78C7
:103BE000FF2B02D10B4800F0D9F80B4B0A4AD2F850
:103BF000A82122F44002C3F8A8210098044900F04B
:103C00008DF90198002100F045F803B05DF804FB40
:103C10008CD90000A4D9000000C00F4082B00190F0
:103C2000019BC3F309030193024B019A92011A60AD
:103C300002B0704700C0084000B583B00190009109
:103C400000984FF0000103F0ADFC0346002B03D0B9
:103C50000020FFF7E3FF18E000984FF07E5103F0DB
:103C6000BFFC0346002B04D040F2FF30FFF7D6FF25
:103C70000BE00098064903F0F7FA0346184603F0F4
:103C8000B9FC03461846FFF7C9FF03B05DF804FB13
:103C900000C07F4400B583B001900B46ADF8023000
:103CA000BDF802309B099BB21846FFF7B7FF03B07F
:103CB0005DF804FB374B2022C3F8A021354BD3F825
:103CC000A03103F02003002B07D000BF314BD3F805
:103CD000A03103F04003002BF8D02E4B0222C3F892
:103CE00004212C4B0022C3F8A8212A4B0022C3F840
:103CF000AC21284B0122C3F80C21264B0B22C3F820
:103D00008420244BAA22C3F88C20224B5522C3F8CE
:103D10008C20204B0122C3F880201E4BAA22C3F81E
:103D20008C201C4B5522C3F88C2000BF194BD3F8B4
:103D3000883003F08063002BF8D0164B0322C3F8C1
:103D40008020144BAA22C3F88C20124B5522C3F8B2
:103D50008C2000BF0F4BD3F8883003F04073002B4A
:103D6000F8D00C4B0522C3F808210A4B0A4AC3F8C5
:103D7000C420084B0022C3F8C821064A054B1B6823
:103D800023F4704323F03A0343F4405343F03A03DF
:103D90001360704700C00F40DE8728040FB400B5E1
:103DA00083B005AB0193054B1B68DB68184604998B
:103DB000019A04F0D9FF012000F002F83C01001044
:103DC00000B583B001900C4B1B689B68184603F04C
:103DD00075FD094B1B68DB68184603F06FFD00F0AA
:103DE00097F80346002B01D000F030F9019B002B1F
:103DF00001D002F02BFAFEE73C01001082B00190E6
:103E00000091009B002B05D0019BDB68019A526852
:103E10001A6004E0019B1B69019A52681A6002B0A3
:103E2000704700BF00B585B00390029113468DF82E
:103E300007300398029900F0FFFF029BB3F1FF3FA8
:103E400009D00398002101F035F89DF80730039858
:103E5000194601F01DF805B05DF804FB00B585B00A
:103E600003900291009313468DF80730039802994E
:103E700000F0E2FF029BB3F1FF3F0DD003980099E1
:103E8000FFF7BCFF0398012101F014F89DF80730FB
:103E90000398194600F0FCFF05B05DF804FB00BF75
:103EA00000B583B00190009101980099032200F0C1
:103EB00003F803B05DF804FB00B585B003900291F0
:103EC00013468DF807309DF80730039802991A467B
:103ED000FFF7A8FF05B05DF804FB00BF00B583B095
:103EE0000190009101980099002200F003F803B0BE
:103EF0005DF804FB00B585B0039002910192039830
:103F000002990222019BFFF7A9FF05B05DF804FBAF
:103F100008B5FDF7EDF80346184608BD00B583B0B7
:103F200001900091019BB3F1FF3F00D11BE012E033
:103F3000009B1A68019B9A420AD1009B9B680198DA
:103F4000194601F0DFF90198022101F011FA0AE0A7
:103F5000009B0C330093009B1B68B3F1FF3FE7D13C
:103F60000248FFF71BFF03B05DF804FBBCD900005B
:103F700000B583B001900091019A009B9A4201D153
:103F8000019B10E0019BB3F1FF3F01D1009B0AE0D0
:103F9000009BB3F1FF3F01D1019B04E00448FFF710
:103FA000FDFE4FF0FF33184603B05DF804FB00BF81
:103FB000D0D9000082B0019000910AE0009B1A68FD
:103FC000019B9A4202D1009B5B6809E0009B0C3385
:103FD0000093009B1B68B3F1FF3FEFD14FF0FF331D
:103FE000184602B0704700BF00B585B0019000913F
:103FF0004FF0FF330393019BB3F1FF3F02D14FF02A
:10400000FF330CE001980099FFF7D4FF0390039B66
:10401000B3F1FF3F02D10448FFF7C0FE039B1846EF
:1040200005B05DF804FB00BFE4D9000030B585B0F1
:1040300001900091019C009D20462946ABBE04469C
:104040000394039B184605B030BD00BF00B585B092
:104050006B4618201946FFF7E9FF0346184605B0DE
:104060005DF804FB00B583B001900198064903F0A8
:10407000FBF80346184603F0BDFA0346184600F065
:1040800013F803B05DF804FB0024744900B583B055
:104090000190019B4FF47A7202FB03F3184600F083
:1040A00003F803B05DF804FB00B585B0019002F0A1
:1040B00053F8039000BF02F04FF80246039BD21A58
:1040C000019B9A42F7D305B05DF804FB00B583B0BD
:1040D00001900091019B00221A60019B00225A600E
:1040E000019B00229A610198009900F005F8019B5C
:1040F000184603B05DF804FB82B001900091019B6B
:10410000009A1A60019B00225A6002B0704700BFFB
:1041100000B583B00190019B1B68002B03D0019B6D
:104120001B6898470CE0019B5B68002B08D0019B43
:104130009B69019A5168019A0832084611469847CE
:1041400003B05DF804FB00BF00B583B0019000919F
:10415000019B1E4A1A60019B00225A60019B0022AB
:104160009A60019B0022DA60019B00221A61019B88
:1041700000225A61019B00229A61019B0022DA61B0
:10418000019B00221A62019B00225A62019B283384
:1041900018460021FFF79AFF019B4433184600217F
:1041A000FFF794FF019B03F11C02019B104600994D
:1041B000074A00F0A1FF019B043318460099FFF75E
:1041C0006FFE019B184603B05DF804FB10DA000097
:1041D000A142000000B583B00190019B084A1A601B
:1041E000019B1C33184600F0DBFF0023002B02D09C
:1041F000019802F0E4FA019B184603B05DF804FB55
:1042000010DA000000B583B001900198FFF7E2FFDB
:10421000019802F0D4FA019B184603B05DF804FB44
:1042200000B583B001900091009B002B0DD0019B45
:10423000283318460099FFF75FFF019B1C3318468F
:104240000121012200F0B8FF06E0019B1C33184653
:104250000121002200F0B0FF03B05DF804FB00BFB5
:1042600000B583B001900091009B002B0DD0019B05
:10427000443318460099FFF73FFF019B1C33184653
:104280000221012200F098FF06E0019B1C33184632
:104290000221002200F090FF03B05DF804FB00BF94
:1042A00000B585B001900B468DF80330019B039358
:1042B0009DF80330012B03D0022B07D0002B0BE01D
:1042C000039B28331846FFF723FF05E0039B443385
:1042D0001846FFF71DFF00BF05B05DF804FB00BFE7
:1042E00000B585B00390029101920093039B18469C
:1042F0000299019A00F03CF8039B48331846009954
:1043000000F0FEF8039B064A1A60039B054A9A6474
:10431000039B054ADA64039B184605B05DF804FB6D
:1043200020DA000038DA00006CDA000000B583B053
:104330000190019B184600F0C5F80346184603B0EB
:104340005DF804FBA0F14800FFF7F0BF00B583B0B3
:1043500001900091019B1846009900F0C1F80346B6
:10436000184603B05DF804FBA0F14800FFF7EEBF6C
:1043700030B585B0039002910192039B164A1A60F2
:10438000039B00225A60039B00229A60039B0C331C
:1043900001241D4605E028460021FFF797FE1C3545
:1043A000013CB4F1FF3FF6D1039B4FF416525A641F
:1043B000039B043318460299019A01F095F8039B78
:1043C0001A1D039B104605491A4601F0DFFB039BAB
:1043D000184605B030BD00BF78CB00009544000002
:1043E00000B583B001900091019B043318460099F9
:1043F00001F060F9019B009A5A6403B05DF804FB78
:1044000000B583B00190019B0433184601F02AFDEA
:104410000346184603B05DF804FB00BF00B583B047
:104420000190019B0433184601F028FD034618460D
:1044300003B05DF804FB00BF00B585B003900291A6
:1044400013468DF80730029B002B17D09DF80720EC
:104450001346DB009B1A9B000833039A1344043372
:1044600018460299FFF748FE039B1A1D9DF8073076
:1044700010461946012201F053FC08E0039B1A1D67
:104480009DF8073010461946002201F049FC05B09E
:104490005DF804FB00B585B001900B468DF8033044
:1044A000019B03939DF803201346DB009B1A9B009E
:1044B0000833039A134404331846FFF729FE05B066
:1044C0005DF804FB00B583B00190019B04331846EE
:1044D00001F066FC0346184603B05DF804FB00BF1C
:1044E00000B583B001900091019B043318460099F8
:1044F00001F08EFC009B184603B05DF804FB00BF82
:1045000000B587B001900091019B1846009901F019
:10451000A5FF019B104A1A60019B104A5A60019B3B
:1045200000225A6103AB18460D49019A03F0F2FECE
:1045300003AB18460B4903F007FB0246019B5A6187
:10454000019B5B691846002103F054FE019B18464D
:1045500007B05DF804FB00BF88DA0000BCDA000099
:1045600078DA00007CDA000000B583B00190019B8E
:104570000C4A1A60019B0C4A5A60019B5B69184601
:1045800003F0E6F8019B184601F086FF0023002B9C
:1045900002D0019802F013F9019B184603B05DF8B0
:1045A00004FB00BF88DA0000BCDA0000A0F10400C0
:1045B000FFF7DABF00B583B001900198FFF7D4FF91
:1045C000019802F0FCF8019B184603B05DF804FB6B
:1045D000A0F10400FFF7EEBF00B583B00190009199
:1045E000019B5B69184603F069F9019B5B690098C0
:1045F000194603F0D7FA0346184603B05DF804FBEA
:1046000000B583B00190019B5B69184603F056F931
:10461000019B5B69184603F08FF90346184603B007
:104620005DF804FB82B001900023184602B0704789
:1046300000B587B0039002910192029B0593059A01
:10464000019B1344049314E0039B1B6824331A68F2
:10465000059B591C05911B78039819469047034602
:10466000B3F1FF3F14BF00230123DBB2002B00D0C6
:1046700003E0059A049B9A42E6D1059A029BD31A5D
:10468000184607B05DF804FB00B589B003900291AD
:104690000192029B0793079A019B1344069311E032
:1046A000039B1B6828331B68039898470590059B5C
:1046B000B3F1FF3F00D109E0079B5A1C0792059A0E
:1046C000D2B21A70079A069B9A42E9D1079A029BC6
:1046D000D31A184609B05DF804FB00BF84B00390FC
:1046E000029101920023184604B0704782B00190F5
:1046F0000023184602B0704782B00190002318468C
:1047000002B0704782B001900023184602B0704793
:1047100030B583B001900091019B184600F0FCF881
:10472000019B009A1A61019C019B1D6901F014FD17
:1047300003462B442046194600F0DEF803B030BD96
:1047400000B583B00190019A019B5968019B1B69D8
:104750000B441046194600F0CFF8019B143318465D
:10476000FFF7D6FC03B05DF804FB00BF00B583B0D3
:104770000190019B00221A60019B00225A60019B5C
:1047800000229A60019800F05BF8019B184603B084
:104790005DF804FB00B583B0019001F0DDFC02463A
:1047A000019B5A60019B01221A6003B05DF804FB73
:1047B00000B583B00190019800F02EF80346019AED
:1047C00092681A44019B9A60019B00221A6003B010
:1047D0005DF804FB10B582B00190019B9C680198C4
:1047E00000F01AF803462344184602B010BD00BF7B
:1047F00000B583B001900198FFF7ECFF0346054A2E
:1048000082FB03129211DB17D31A184603B05DF82E
:1048100004FB00BFD34D621000B583B00190019B33
:104820001B68002B06D001F097FC0246019B5B68D9
:10483000D31A00E00023184603B05DF804FB00BF64
:1048400000B583B0019001F087FC0246019B5A60DD
:10485000019B00229A6003B05DF804FB00B583B0B1
:104860000190019B094A1A60019B00225A60019B3A
:1048700000229A60019B0022DA60054801F034FDB5
:10488000019B184603B05DF804FB00BFE8DA0000A6
:104890009548000000B585B00190019B0393039BF0
:1048A0001B6808331B680398984705B05DF804FB44
:1048B00000B583B00190019B074A1A60019800F08F
:1048C0002BF80023002B02D0019801F078FF019B08
:1048D000184603B05DF804FBE8DA000000B583B0C9
:1048E00001900198FFF7E4FF019801F068FF019B38
:1048F000184603B05DF804FB00B583B00190009149
:10490000019B1A1D019B104600991A4601F030FDCB
:1049100003B05DF804FB00BF00B583B00190019BBC
:104920000433184601F05CFD03B05DF804FB00BFE2
:1049300000B585B00190019B1B6810331B6801987E
:104940000021012298470390039BB3F1FF3F02D15E
:104950004FF0FF3311E0019B1B6810331B68019877
:104960000021022298470290019B1B6810331B68AC
:104970000198039900229847029B184605B05DF8FC
:1049800004FB00BF00B585B00190019B114A1A607D
:10499000002303930EE0104B039A53F82220019B4F
:1049A0009A4204D10C4B039A002143F82210039B36
:1049B000013303934022039B9A42ECD80023002B3F
:1049C00002D0019801F0FBFE019B184605B05DF88E
:1049D00004FB00BF28DB00008407001000B583B093
:1049E00001900198FFF7CEFF019801F0E8FE019BCE
:1049F000184603B05DF804FB08B5054B1B68002B97
:104A000000D004E003480449044A00F06DFD08BDED
:104A10004C090010880C001002C0092003C00920B6
:104A200084B00190019B0393039B184604B0704728
:104A300010B58AB0019000910198484903F0FDFC3F
:104A40000346002B03D1FFF7D7FF002383E0019833
:104A5000434903F0F2FC0346002B03D1FFF7CCFFE0
:104A6000012378E001983F4903F0E7FC0346002B5F
:104A700003D1FFF7C1FF02236DE00023099309E092
:104A8000394B099A53F82230002B00D106E0099BDC
:104A9000013309934022099B9A42F1D84022099B95
:104AA0009A4202D84FF0FF3355E0019B1B783A2B16
:104AB00008D105AB01982D491A4603F04FFC059B20
:104AC00008933BE003AB1846019901F01DFD03ABD1
:104AD000184601F0C1FD034683F00103DBB2002B51
:104AE00002D04FF0FF3336E003AB184601F084FDEF
:104AF0000346002B05D003AB184601F095FD089046
:104B00001CE003AB184601F065FD0790079B002BE6
:104B100002D14FF0FF331EE00098FFF781FF0690AF
:104B2000079B1B6808331C6803AB184601F032FD75
:104B3000034607981946069AA0470890089B002B41
:104B400002D14FF0FF3306E0074B099A089943F86A
:104B50002210099B033318460AB010BDF8DA000092
:104B600000DB000008DB00008407001010DB000001
:104B700000B585B00190019B022B01DC002318E0F9
:104B8000019BDA1E0D4B53F822300393019BDA1E72
:104B90000A4B002143F82210039B002B02D14FF057
:104BA000FF3306E0039B1B6804331B680398984798
:104BB0000346184605B05DF804FB00BF84070010EB
:104BC00000B589B00390029101920093039B022BE0
:104BD0001ADC1A4B1B68002B01D1FFF70DFF0023D5
:104BE00006930AE0029A069B13441B781448194660
:104BF00001F00EF9069B01330693069A019B9A4237
:104C0000F0D3019B079313E0039BDA1E0D4B53F87F
:104C100022300593059B002B02D14FF0FF3308E0B3
:104C2000059B1B681B6805980299019A9847079095
:104C3000079B184609B05DF804FB00BF4C09001043
:104C4000880C00108407001000B587B00390029113
:104C500001920093039B022B09DC124801F0A0F89B
:104C60000346DAB2029B1A700123059314E0039BFA
:104C7000DA1E0D4B53F822300493049B002B02D113
:104C80004FF0FF3309E0049B1B6808331B6804984E
:104C90000299019A98470590059B184607B05DF860
:104CA00004FB00BF880C00108407001000B585B01D
:104CB0000190019B022B01DC012312E0019BDA1E13
:104CC0000A4B53F822300393039B002B02D14FF081
:104CD000FF3306E0039B1B680C331B68039898475F
:104CE0000346184605B05DF804FB00BF84070010BA
:104CF00000B587B0039002910192039B022B01DC67
:104D0000002314E0039BDA1E0B4B53F8223005936B
:104D1000059B002B02D14FF0FF3308E0059B1B6879
:104D200010331B6805980299019A98470346184664
:104D300007B05DF804FB00BF8407001000B583B026
:104D400001900091019B012B05D0019B022B02D009
:104D5000019B002B05D1009B4FF400525A600023A9
:104D600006E002F09DFC034609221A604FF0FF3373
:104D7000184603B05DF804FB10B485B00190124BE7
:104D80001B680393104B1A68019B13440293EFF3C3
:104D900008831C4623461A46029B9A428CBF002376
:104DA0000123DBB2002B05D0084B0C221A604FF018
:104DB000FF3303E0044B029A1A60039B184605B0C8
:104DC0005DF8044B704700BFD8000010900C001035
:104DD0000649074A074B9A42BEBF51F8040B42F8F6
:104DE000040BF8E70448804704480047D8E0000077
:104DF000C800001088010010B53C0000E10F000061
:104E0000FEE7FEE7FEE7FEE7FEE7FEE7FEE7FEE77A
:104E1000FEE7FEE700B583B001900198002100F0A5
:104E200071FA019B03F01F03012202FA03F31846F3
:104E300003B05DF804FB00BF00B585B001900091A0
:104E4000009BB3F1FF3F00D11EE0019B009A1A6066
:104E50000098FFF7DFFF0246019B5A60009B23F09A
:104E60001F030393039B03F11802019BDA60039B6A
:104E700003F11C02019B1A61039B03F11402019BC5
:104E80005A61039A019B9A6005B05DF804FB00BF6C
:104E900000B583B001900B468DF80330019B1A6872
:104EA0009DF803301046194600F062FA03B05DF831
:104EB00004FB00BF82B001900B468DF803309DF8D3
:104EC0000330002B02D0012B0BD014E0019B9B6818
:104ED000019A92681168019A5268D2430A401A6096
:104EE00009E0019B9B68019A92681168019A5268D7
:104EF0000A431A6000BF02B0704700BF82B0034689
:104F00008DF80730074B9DF9072052099DF80710CF
:104F100001F01F01012000FA01F143F8221002B054
:104F2000704700BF00E100E000B58FB06F4B5B68D9
:104F30000D936E4B9B680C936C4B5B6A0B936B4BA6
:104F40009B6A0A932BE00D9B0893089BB3FA83F3AB
:104F50000793079BDBB2C3F11F038DF827309DF841
:104F60002720634B53F82230002B09D0614B1B687C
:104F70009DF827105E4A52F82120104601219847DB
:104F80005A4B9DF82720012101FA02F2DA609DF8C0
:104F90002730012202FA03F30D9AD31A0D930D9BC9
:104FA000002BD0D12BE00C9B0693069BB3FA83F326
:104FB0000593059BDBB2C3F11F038DF827309DF8E5
:104FC00027204B4B53F82230002B09D0494B1B684C
:104FD0009DF82710464A52F8212010460221984792
:104FE000424B9DF82720012101FA02F2DA609DF878
:104FF0002730012202FA03F30C9AD31A0C930C9B6C
:10500000002BD0D133E00B9B0493049BB3FA83F3C2
:105010000393039BDBB2C3F11F038DF827309DF888
:1050200027300F2B14D89DF8273003F12002304B86
:1050300053F82230002B0BD02E4B1B689DF82720F5
:1050400002F120012A4A52F82120104601219847F6
:10505000264B9DF82720012101FA02F2DA629DF821
:105060002730012202FA03F30B9AD31A0B930B9BFE
:10507000002BC8D133E00A9B0293029BB3FA83F35F
:105080000193019BDBB2C3F11F038DF827309DF81C
:1050900027300F2B14D89DF8273003F12002144B32
:1050A00053F82230002B0BD0124B1B689DF82720A1
:1050B00002F120010E4A52F82120104602219847A1
:1050C0000A4B9DF82720012101FA02F2DA629DF8CD
:1050D0002730012202FA03F30A9AD31A0A930A9B91
:1050E000002BC8D10FB05DF804FB00BF80800240E8
:1050F000840800104409001000B587B003900291A5
:1051000001920093029BB3F1FF3F02D14FF0FF33B6
:1051100036E01D4B019A1A60029B23F01F02039B8D
:105120001A60029B03F01F02039B5A60039B1A68DC
:10513000164B9A4207D0039B1A68154B9A4202D02D
:105140001448FEF72BFE039B1A68104B9A4202D1BB
:10515000039B5B6802E0039B5B68203305930E4B67
:10516000059A009943F82210059A039B9A600B4B0D
:105170001520194601F020F81520FFF7BFFE002387
:10518000184607B05DF804FB4409001000C0092070
:1051900040C0092050DB000084080010294F0000A7
:1051A00082B00190019B9A68024B002143F82210C3
:1051B00002B070478408001084B003900B4601923F
:1051C0008DF80B30039B1B684B4A934203D04B4A2C
:1051D000934208D00FE04A4B039A5268012101FA2A
:1051E00002F2DA6007E0464B039A5268012101FAA5
:1051F00002F2DA6200BF9DF80B30012B3DD1039B18
:105200001B683D4A934203D03C4A93421AD071E056
:10521000019B002B0AD03A4B394A1169039A526814
:10522000012000FA02F20A431A6125E0344B344AA5
:105230001169039A5268012000FA02F2D2430A402F
:105240001A6119E0019B002B0AD02D4B2C4A116BDF
:10525000039A5268012000FA02F20A431A630AE034
:10526000274B274A116B039A5268012000FA02F279
:10527000D2430A401A6300BF3CE0039B1B681E4AEE
:10528000934203D01D4A93421AD033E0019B002B76
:105290000AD01B4B1A4A5169039A5268012000FA3E
:1052A00002F20A435A6125E0154B154A5169039AE7
:1052B0005268012000FA02F2D2430A405A6119E012
:1052C000019B002B0AD00E4B0D4A516B039A52687A
:1052D000012000FA02F20A435A630AE0084B084A26
:1052E000516B039A5268012000FA02F2D2430A403D
:1052F0005A6300BF04B0704700C0092040C00920B5
:105300008080024086B001900091019BB3F1FF3F85
:1053100000D128E0019B03F16043A3F51C23059312
:10532000059B1B090493059B03F00F035B0003938C
:105330000E4B0E4A049952F821100320039A00FAEA
:1053400002F2D2431140049A43F82210074B074A55
:10535000049952F821100098039A00FA02F21143BE
:10536000049A43F8221006B0704700BF00C0024004
:1053700086B001900B468DF80330019BB3F1FF3FDF
:1053800000D15CE0019B03F16043A3F51C2305936E
:10539000059B5B090493059B03F01F0303939DF892
:1053A000033003F004039B080293264B254A04991B
:1053B0001A3152F821100298039A00FA02F2D243ED
:1053C0001140049A1A3243F822101E4B1D4A0499C8
:1053D0001A3152F821100298039A00FA02F211438E
:1053E000049A1A3243F82210029B002B27D1059B06
:1053F0001B090493059B03F00F035B000393114B00
:10540000104A0499103152F821100320039A00FA2F
:1054100002F2D2431140049A103243F82210094B91
:10542000084A0499103152F821109DF80300039A9C
:1054300000FA02F21143049A103243F8221006B027
:10544000704700BF00C0024082B003468DF80730AD
:10545000074B9DF9072052099DF8071001F01F0125
:10546000012000FA01F143F8221002B0704700BF9A
:1054700000E100E082B003468DF80730074B9DF94C
:10548000072052099DF8071001F01F01012000FAC2
:1054900001F1203243F8221002B0704700E100E031
:1054A00082B001900091009B002B05D0019BDB682E
:1054B000019A52681A6004E0019B1B69019A5268C4
:1054C0001A6002B0704700BF82B00190019B5B6917
:1054D0001A68019B5B681340002B0CBF002301235B
:1054E000DBB2184602B0704700B589B00390029154
:1054F00001920023079302986349FEF775FD069019
:1055000001986249FEF770FD059006980599FEF72F
:105510002FFD0490049BB3F1FF3F02D15C48FEF7DE
:105520003DFC049A039B1A60049B5A4A934216D08E
:10553000584A934203D8584A934207D02AE0574A20
:10554000934215D0564A93421BD023E0554B554AFF
:10555000D2F8C42042F00802C3F8C4201AE0514B2C
:10556000504AD2F8C42042F01002C3F8C42011E01F
:105570004C4B4C4AD2F8C42042F08072C3F8C4208D
:1055800008E0484B474AD2F8C42042F00072C3F802
:10559000C42000BF039B1B6801221A72039B1B6877
:1055A00000225A6003984FF4165100F083F80398D4
:1055B00008210022012300F0D5F902983249FEF7B4
:1055C000ADFC01983149FEF7A9FC02980021FFF7D4
:1055D000CFFE01980021FFF7CBFE049B2D4A93429A
:1055E00011D02C4A934203D82B4A934207D016E09D
:1055F0002A4A93420BD02A4A93420CD00FE0039BD5
:1056000000225A600BE0039B01225A6007E0039BD3
:1056100002225A6003E0039B03225A6000BF039BEF
:105620005A6821491346DB009B1ADB000B444FF0FC
:10563000FF325A60039B5A681B491346DB009B1AD2
:10564000DB000B4418334FF0FF325A6003980021FF
:105650004FF0FF324FF0FF3300F06AFC049A0E4B1C
:105660009A4214BF00230123DBB20793079B002B50
:1056700007D00E4B01221A600D480399082202F050
:10568000F5FB09B05DF804FB80DB0000ECDB0000FB
:10569000A0DC00000000014000C000400080094084
:1056A00000C0094000C00F40500900104C09001014
:1056B000880C001000B589B001900091019B1B6817
:1056C000A14A93421ED0A04A934203DC9F4A9342D0
:1056D00007D04AE09E4A934225D09E4A934233D057
:1056E00043E09D4B9C4AD2F8A82122F0C002C3F8A7
:1056F000A821994B984AD2F8A82142F04002C3F859
:10570000A82136E0944B944AD2F8A82122F44072A2
:10571000C3F8A821904B904AD2F8A82142F4807295
:10572000C3F8A82125E08C4B8B4AD2F8AC2122F497
:105730004032C3F8AC21884B874AD2F8AC2142F4FE
:105740008032C3F8AC2114E0834B834AD2F8AC21F9
:1057500022F44022C3F8AC217F4B7F4AD2F8AC211F
:1057600042F48022C3F8AC2103E07C48FEF716FB2C
:1057700000BF7B4B1B680393009B1B01039AB2FB8A
:10578000F3F3ADF81E3000238DF81D3001238DF8A2
:105790001C3000230693009B1B011A46039BB3FB9E
:1057A000F2F102FB01F29B1A002B00F09C80009B9F
:1057B000049301238DF815308DE000238DF814300B
:1057C0007DE09DF81530039A02FB03F35B00002B8C
:1057D00015DA9DF81530039A02FB03F35A009DF881
:1057E00014109DF815300B44009901FB03F3B2FB34
:1057F000F3F31B0901335B08ADF8163014E09DF894
:105800001530039A02FB03F39A009DF814109DF8DB
:1058100015300B44009901FB03F3B2FBF3F35B0972
:1058200001335B08ADF81630BDF81630002B02D1FD
:105830000123ADF816309DF81430002B06D0BDF8CA
:105840001630012B02D80223ADF816309DF8153022
:10585000039A02FB03F2BDF816309DF814009DF880
:105860001510014401FB03F3DB00B2FBF3F301333A
:105870005B080293029A009BD31A002BB8BF5B42CD
:105880000293029A049B9A4214DA029B0493BDF895
:105890001630ADF81E309DF815308DF81C309DF88F
:1058A00014308DF81D30029A009B9A4202D10123D8
:1058B00006930BE09DF8143001338DF814309DF8F9
:1058C00014209DF815309A42FFF47BAF9DF81530F7
:1058D00001338DF815309DF815300F2B03D8069B3A
:1058E000002B3FF46AAF019B1B68019A1268127B80
:1058F000D2B262F07F02D2B21A73019B1B68BDF86C
:105900001E20120A92B2D2B21A71019B1B68BDF816
:105910001E20D2B21A70019B1B689DF81C20120138
:10592000D1B29DF81D200A43D2B283F82820019BF2
:105930001B68019A1268127BD2B202F07F02D2B2C7
:105940001A7309B05DF804FB0000014000C000407C
:105950000080094000C0094000C00F40C0DC0000CA
:10596000D400001000B587B0039002910093134655
:105970008DF80730009B012B05D0009B022B02D035
:105980002C48FEF70BFA009B013B0093029B042B73
:1059900002DD029B082B03DD27480299FEF7FEF982
:1059A000029B053B02939DF80730042B25D801A2EA
:1059B00052F823F0C9590000D3590000DD59000006
:1059C000E7590000F15900000023059300230493D8
:1059D00017E0012305930023049312E001230593AC
:1059E000012304930DE0012305930223049308E0AF
:1059F000012305930323049303E01048FEF7CEF937
:105A000014E0039B1B68009A9200D1B2029AD2B2B2
:105A10000A43D1B2059AD200D2B20A43D1B2049A53
:105A20001201D2B20A43D2B2D2B21A7307B05DF8F1
:105A300004FB00BFCCDC0000E8DC000028DD000037
:105A400010B586B0039002910192039B012B02D006
:105A5000022B04D05BE001238DF8173003E0002314
:105A60008DF8173000BF9DF81730002B27D129493A
:105A7000029A1346DB009B1ADB000B445B68B3F110
:105A8000FF3F1CD0029A1346DB009B1ADB00214A21
:105A90001344043318460121FFF702FD1D49029A01
:105AA0001346DB009B1ADB000B4430339B79002B41
:105AB00005D1019B5B6823F00102019B5A601549E7
:105AC000029A1346DB009B1ADB000B441B68002B79
:105AD0001DD09DF81730002B0AD10E49029A1346AB
